:020000040800F2
:100000000080012029240008DD210008E5210008E6
:10001000ED210008F5210008FD2100080000000086
:1000200000000000000000000000000005220008A1
:100030001322000800000000212200082F220008DF
:10004000792400087924000879240008792400081C
:10005000792400087924000879240008792400080C
:100060003B22000849220008572200087924000892
:1000700079240008792400087924000879240008EC
:100080007924000879240008792400080000000081
:1000900000000000000000000000000079240008BB
:1000A00079240008792400087924000879240008BC
:1000B00065220008792400087924000879240008C2
:1000C000792400087924000879240008792400089C
:1000D0007924000879240008792400080000000031
:1000E0007924000879240008792400080000000021
:1000F000000000000000000000000000792400085B
:100100000000000079240008792400087924000800
:1001100000000000000000000000000000000000DF
:10012000792400087924000879240008792400083B
:10013000792400080000000000000000000000001A
:10014000000000000000000000000000792400080A
:10015000792400087924000879240008792400080B
:100160007924000879240008000000000000000045
:10017000000000000000000000000000000000007F
:1001800000000000792400080000000000000000CA
:0401900079240008C6
:1001A00010B5054C237833B9044B13B10448AFF3B1
:1001B00000800123237010BDD40100200000000046
:1001C0004084000808B5034B1BB103490348AFF353
:1001D000008008BD00000000D80100204084000815
:1001E00001F0FF01102A2BDB10F0070F08D010F8E8
:1001F000013B013A8B422DD010F0070F42B3F6D1EC
:10020000F0B441EA012141EA014122F007047FF004
:1002100000070023F0E80256083C85EA010586EA5B
:10022000010685FA47F5A3FA87F586FA47F6A5FA97
:1002300087F68EB9EED1F0BC01F0FF0102F00702A3
:1002400032B110F8013B013A83EA010313B1F8D14E
:100250000020704701387047002D06BF354603382F
:10026000073815F0010F07D1013015F4807F02BF68
:10027000013015F4C03F0130F0BC0138704700BFB9
:10028000034613F8012B002AFBD1181A01387047D6
:1002900081F0004102E000BF83F0004330B54FEA37
:1002A00041044FEA430594EA050F08BF90EA020FA4
:1002B0001FBF54EA000C55EA020C7FEA645C7FEA37
:1002C000655C00F0E2804FEA5454D4EB5555B8BF5A
:1002D0006D420CDD2C4480EA020281EA030382EACB
:1002E000000083EA010180EA020281EA0303362D5D
:1002F00088BF30BD11F0004F4FEA01314FF4801C30
:100300004CEA113102D0404261EB410113F0004F41
:100310004FEA03334CEA133302D0524263EB4303F8
:1003200094EA050F00F0A780A4F10104D5F1200E96
:100330000DDB02FA0EFC22FA05F2801841F10001F1
:1003400003FA0EF2801843FA05F359410EE0A5F1C5
:1003500020050EF1200E012A03FA0EFC28BF4CF0F6
:10036000020C43FA05F3C01851EBE37101F00045AC
:1003700007D54FF0000EDCF1000C7EEB00006EEBB9
:100380000101B1F5801F1BD3B1F5001F0CD3490843
:100390005FEA30004FEA3C0C04F101044FEA44529A
:1003A00012F5800F80F09A80BCF1004F08BF5FEA21
:1003B000500C50F1000041EB045141EA050130BD01
:1003C0005FEA4C0C404141EB0101013C28BFB1F513
:1003D000801FE9D291F0000F04BF01460020B1FA5E
:1003E00081F308BF2033A3F10B03B3F120020CDA31
:1003F0000C3208DD02F1140CC2F10C0201FA0CF00F
:1004000021FA02F10CE002F11402D8BFC2F1200C73
:1004100001FA02F120FA0CFCDCBF41EA0C01904029
:10042000E41AA2BF01EB0451294330BD6FEA040472
:100430001F3C1CDA0C340EDC04F11404C4F120025D
:1004400020FA04F001FA02F340EA030021FA04F36F
:1004500045EA030130BDC4F10C04C4F1200220FAC6
:1004600002F001FA04F340EA0300294630BD21FA04
:1004700004F0294630BD94F0000F83F4801306BFCA
:1004800081F480110134013D4EE77FEA645C18BFBE
:100490007FEA655C29D094EA050F08BF90EA020F55
:1004A00005D054EA000C04BF1946104630BD91EA4D
:1004B000030F1EBF0021002030BD5FEA545C05D150
:1004C0004000494128BF41F0004130BD14F580048F
:1004D0003CBF01F5801130BD01F0004545F0FE4103
:1004E00041F470014FF0000030BD7FEA645C1ABF38
:1004F000194610467FEA655C1CBF0B46024650EA6F
:10050000013406BF52EA033591EA030F41F400219A
:1005100030BD00BF90F0000F04BF0021704730B520
:100520004FF4806404F132044FF000054FF00001F5
:1005300050E700BF90F0000F04BF0021704730B5B6
:100540004FF4806404F1320410F0004548BF40428B
:100550004FF000013EE700BF42004FEAE2014FEAE0
:1005600031014FEA02701FBF12F07F4393F07F4FBB
:1005700081F06051704732F07F4208BF704793F0BE
:100580007F4F04BF41F40021704730B54FF46074D1
:1005900001F0004521F000411CE700BF50EA0102D4
:1005A00008BF704730B54FF000050AE050EA01027D
:1005B00008BF704730B511F0004502D5404261EBED
:1005C00041014FF4806404F132045FEA915C3FF42E
:1005D000D8AE4FF003025FEADC0C18BF03325FEACB
:1005E000DC0C18BF033202EBDC02C2F1200300FA7C
:1005F00003FC20FA02F001FA03FE40EA0E0021FAA1
:1006000002F11444BDE600BF70B54FF0FF0C4CF48E
:10061000E06C1CEA11541DBF1CEA135594EA0C0F40
:1006200095EA0C0F00F0DEF82C4481EA030621EA7B
:100630004C5123EA4C5350EA013518BF52EA0335B6
:1006400041F4801143F4801338D0A0FB02CE4FF068
:100650000005E1FB02E506F00042E0FB03E54FF098
:100660000006E1FB03569CF0000F18BF4EF0010E90
:10067000A4F1FF04B6F5007F64F5407404D25FEA8C
:100680004E0E6D4146EB060642EAC62141EA55513F
:100690004FEAC52040EA5E504FEACE2EB4F1FD0C81
:1006A00088BFBCF5E06F1ED8BEF1004F08BF5FEAFF
:1006B000500E50F1000041EB045170BD06F00046B1
:1006C00046EA010140EA020081EA0301B4EB5C045E
:1006D000C2BFD4EB0C0541EA045170BD41F4801156
:1006E0004FF0000E013C00F3AB8014F1360FDEBF7B
:1006F000002001F0004170BDC4F10004203C35DA57
:100700000C341BDC04F11404C4F1200500FA05F3D9
:1007100020FA04F001FA05F240EA020001F000427A
:1007200021F0004110EBD37021FA04F642EB0601F0
:100730005EEA430E08BF20EAD37070BDC4F10C041A
:10074000C4F1200500FA04F320FA05F001FA04F2DE
:1007500040EA020001F0004110EBD37041F10001CA
:100760005EEA430E08BF20EAD37070BDC4F12005D5
:1007700000FA05F24EEA020E20FA04F301FA05F23D
:1007800043EA020321FA04F001F0004121FA04F2E5
:1007900020EA020000EBD3705EEA430E08BF20EAB5
:1007A000D37070BD94F0000F0FD101F000464000EF
:1007B00041EB010111F4801F08BF013CF7D041EA71
:1007C000060195F0000F18BF704703F00046520075
:1007D00043EB030313F4801F08BF013DF7D043EA46
:1007E0000603704794EA0C0F0CEA135518BF95EAFC
:1007F0000C0F0CD050EA410618BF52EA4306D1D183
:1008000081EA030101F000414FF0000070BD50EAA1
:10081000410606BF1046194652EA430619D094EA2B
:100820000C0F02D150EA013613D195EA0C0F05D115
:1008300052EA03361CBF104619460AD181EA030169
:1008400001F0004141F0FE4141F470014FF0000021
:1008500070BD41F0FE4141F4780170BD70B54FF0BC
:10086000FF0C4CF4E06C1CEA11541DBF1CEA13553C
:1008700094EA0C0F95EA0C0F00F0A7F8A4EB05041E
:1008800081EA030E52EA03354FEA013100F0888015
:100890004FEA03334FF0805545EA131343EA1263DE
:1008A0004FEA022245EA111545EA10654FEA002693
:1008B0000EF000419D4208BF964244F1FD0404F54C
:1008C000407402D25B084FEA3202B61A65EB0305A8
:1008D0005B084FEA32024FF480104FF4002CB6EB65
:1008E000020E75EB030E22BFB61A754640EA0C00E5
:1008F0005B084FEA3202B6EB020E75EB030E22BF25
:10090000B61A754640EA5C005B084FEA3202B6EB65
:10091000020E75EB030E22BFB61A754640EA9C0024
:100920005B084FEA3202B6EB020E75EB030E22BFF4
:10093000B61A754640EADC0055EA060E18D04FEAB2
:10094000051545EA16754FEA06164FEAC30343EA52
:1009500052734FEAC2025FEA1C1CC0D111F4801F1F
:100960000BD141EA00014FF000004FF0004CB6E718
:1009700011F4801F04BF01430020B4F1FD0C88BFB7
:10098000BCF5E06F3FF6AFAEB5EB030C04BFB6EBC2
:10099000020C5FEA500C50F1000041EB045170BDB5
:1009A0000EF0004E4EEA113114EB5C04C2BFD4EBE2
:1009B0000C0541EA045170BD41F480114FF0000E66
:1009C000013C90E645EA060E8DE60CEA135594EAE2
:1009D0000C0F08BF95EA0C0F3FF43BAF94EA0C0FE5
:1009E0000AD150EA01347FF434AF95EA0C0F7FF45A
:1009F00025AF104619462CE795EA0C0F06D152EAAE
:100A000003353FF4FDAE1046194622E750EA410691
:100A100018BF52EA43067FF4C5AE50EA41047FF4A2
:100A20000DAF52EA43057FF4EBAE12E74FF0FF3C07
:100A300006E000BF4FF0010C02E000BF4FF0010CD8
:100A40004DF804CD4FEA410C7FEA6C5C4FEA430C51
:100A500018BF7FEA6C5C1BD001B050EA410C0CBFA0
:100A600052EA430C91EA030F02BF90EA020F002002
:100A7000704710F1000F91EA030F58BF994208BF69
:100A800090422CBFD8176FEAE37040F00100704726
:100A90004FEA410C7FEA6C5C02D150EA013C07D17D
:100AA0004FEA430C7FEA6C5CD6D152EA033CD3D0C8
:100AB0005DF8040B704700BF8446104662468C46C2
:100AC0001946634600E000BF01B5FFF7B7FF0028F5
:100AD00048BF10F1000F01BD4DF808EDFFF7F4FF1E
:100AE0000CBF012000205DF808FB00BF4DF808EDA9
:100AF000FFF7EAFF34BF012000205DF808FB00BFCC
:100B00004DF808EDFFF7E0FF94BF012000205DF8ED
:100B100008FB00BF4DF808EDFFF7CEFF94BF0120A2
:100B200000205DF808FB00BF4DF808EDFFF7C4FF9B
:100B300034BF012000205DF808FB00BF4FEA410CE4
:100B40007FEA6C5C02D150EA013C0AD14FEA430CC7
:100B50007FEA6C5C02D152EA033C02D14FF0000004
:100B600070474FF0010070474FEA410212F5001242
:100B700015D211D56FF47873B3EB625212D94FEAE4
:100B8000C12343F0004343EA505311F0004F23FACE
:100B900002F018BF404270474FF00000704750EA23
:100BA000013005D111F0004008BF6FF000407047E0
:100BB0004FF00000704700BF53B94AB9002908BF81
:100BC00000281CBF4FF0FF314FF0FF3000F088B914
:100BD000ADF1080C6DE904CE00F006F8DDF804E094
:100BE000DDE9022304B070472DE9F047089D8E46E9
:100BF00004468846002B4AD18A42174662D9B2FA87
:100C000082F64EB1C6F1200301FA06F820FA03F38A
:100C1000B74043EA0808B4404FEA174E1FFA87FC72
:100C2000B8FBFEF1230C0EFB118843EA084301FBDD
:100C30000CF29A4209D9FB1801F1FF3080F0EA80EA
:100C40009A4240F2E78002393B449A1AA3B2B2FBBF
:100C5000FEF00EFB102243EA024300FB0CFC9C4515
:100C600009D9FB1800F1FF3280F0D6809C4540F294
:100C7000D3803B44023840EA0140A3EB0C0300213F
:100C80001DB1F3400022C5E90032BDE8F0878B4278
:100C900005D90DB1C5E9000100210846F5E7B3FA11
:100CA00083F1002946D1734502D3824200F20581C7
:100CB000841A6EEB030201209046002DE5D0C5E9B1
:100CC0000048E2E7002A00F09080B2FA82F6002E97
:100CD00040F0A4808A1A030C4FEA174E80B2BCB2CF
:100CE0000121B2FBFEFC0EFB1C2243EA024304FB83
:100CF0000CF29A4207D9FB180CF1FF3802D29A4243
:100D000000F2E080C4469B1AB3FBFEF20EFB1233E6
:100D100040EA034302FB04F49C4207D9FB1802F1AA
:100D2000FF3002D29C4200F2CA8002461B1B42EAFC
:100D30000C40A5E7C1F120068B4022FA06F71F43BD
:100D40000EFA01F420FA06F32EFA06FE4FEA1749CE
:100D5000234300FA01F81FFA87FCBEFBF9F01C0CD4
:100D600009FB10EE44EA0E4400FB0CFEA64502FA15
:100D700001F209D93C1900F1FF3A80F09C80A645A8
:100D800040F2998002383C44A4EB0E041FFA83FE23
:100D9000B4FBF9F309FB13444EEA044403FB0CFCD7
:100DA000A44508D93C1903F1FF3E80F08280A44598
:100DB0007FD9023B3C4443EA0040A4EB0C04A0FB77
:100DC00002EC64457346E14662D35FD05DB1B8EB97
:100DD000030264EB090404FA06F622FA01F31E4347
:100DE000CC40C5E9006400214FE7B1FBF2FC010CE7
:100DF00041EA0E4180B240EA01423B4638463C4659
:100E0000B846BE462026B1FBF7F1A2EB080241EA44
:100E10000C4166E7014618E710462CE7C6F12002B0
:100E20002EFA02F3B740B14020FA02F24FEA174E11
:100E30000A43B3FBFEF8BCB20EFB1833110C41EAB7
:100E4000034108FB04F9B04089454FEA104380B2E2
:100E50003ED9791808F1FF3C01D289451FD8A1EB92
:100E60000901B1FBFEF909FB04F80EFB191192B25E
:100E700042EA0142424529D2BA1809F1FF31C4D2EF
:100E80004245C2D2A9F102013A44BEE7F0459DD2E3
:100E9000BEEB02036CEB070C0138E14696E7A7EBCB
:100EA00009094944A8F1020CB1FBFEF909FB04F859
:100EB000DBE773467FE7504666E70846FDE63B44BE
:100EC000023A33E7ACF1020C3B441CE749469CE78D
:100ED000A1EB0901C446B1FBFEF909FB04F8C4E724
:100EE000704700BF80B485B000AF78600023FB601E
:100EF0007B682E4A934206D87B68B3F1006F02D319
:100F00000023FB604BE07B68294A934206D87B684C
:100F1000284A934202D30123FB6040E07B68264AC3
:100F2000934206D87B68254A934202D30223FB6092
:100F300035E07B68224A934206D27B68214A93427D
:100F400002D30323FB602AE07B681F4A934206D248
:100F50007B681B4A934202D90423FB601FE07B6835
:100F60001A4A934206D27B68174A934202D9052354
:100F7000FB6014E07B68164A934206D27B68134AF2
:100F8000934202D90623FB6009E07B68114A934231
:100F900005D27B680E4A934201D90723FB60FB68A8
:100FA00018461437BD465DF8047B7047FE3F0008C5
:100FB000FE7F000800400008FEBF00080080000817
:100FC000FFFF000800C00008FFFF0108FFFF030843
:100FD000FFFF0508FFFF070880B485B000AF786009
:100FE00087ED000A3B68BB600023FB730BE0FA7BD4
:100FF000FB7B79680B4410323A4412F8082C1A70C3
:10100000FB7B0133FB73FB7B032BF0D900BF00BFDD
:101010001437BD465DF8047B704780B487B000AFDD
:1010200078600023FB750BE0FB7D7A681A44FB7D3A
:10103000127818333B4403F80C2CFB7D0133FB750D
:10104000FB7D032BF0D9FB683B613B6907EE903ACF
:10105000B0EE670A1C37BD465DF8047B70470000A0
:10106000B0B58AB000AFF860B9601346FB800023CA
:101070007B6201F0E1FFF868FFF734FF3862FB881C
:101080009B001A46FB681344FB61F869FFF72AFFCF
:10109000B861214B00221A601F4B02221A611E4ABE
:1010A0003B6A9360BA693B6AD31A01331A4AD36028
:1010B00007F114031946184802F03CF90346002BC7
:1010C0001FD001F0EBFF034622E07B6A9B00BA6869
:1010D00013441B6800221C46154622462B46F9681D
:1010E000022001F055FF0346002B06D1FB680433B4
:1010F000FB607B6A01337B6203E001F0CFFF0346B4
:1011000006E0FB887A6A9A42DFDB01F0B7FF002332
:1011100018462837BD46B0BDF401002080B485B024
:1011200000AFF860B9601346FB80FB681A68BB68C3
:101130001A60FB680433FB60BB680433BB60FB8848
:101140005A1EFA80002B00D0EFE700BF00BF143713
:10115000BD465DF8047B704780B582B000AF786013
:1011600087ED000A97ED000A0548FFF735FF0122D9
:1011700003497868FFF774FF00BF0837BD4680BD9C
:10118000F001002080B584B000AF786007F108035B
:10119000012219467868FFF7C1FF07F108031846D6
:1011A000FFF73BFF87ED030AFB6807EE903AB0EECE
:1011B000670A1037BD4680BD80B500AF0122082107
:1011C000074802F05DFB012001F0CAF90022082166
:1011D000034802F055FB012001F0C2F900BF80BDB9
:1011E0000010024080B582B000AF0346FB71FB796E
:1011F00003F00103DBB21A461021154802F040FB50
:10120000FB795B08DBB203F00103DBB21A46202155
:101210000F4802F035FBFB799B08DBB203F00103BA
:10122000DBB21A4640210A4802F02AFBFB79DB08B0
:10123000DBB203F00103DBB21A468021044802F05E
:101240001FFBFFF7B9FF00BF0837BD4680BD00BFD9
:101250000010024080B582B000AF0346FB7100224F
:1012600004210B4802F00CFBFB791B09DBB218468A
:10127000FFF7B8FFFB7903F00F03DBB21846FFF767
:10128000B1FF022001F06CF900BF0837BD4680BDF8
:101290000010024080B582B000AF0346FB7101220E
:1012A00004210B4802F0ECFAFB791B09DBB218466B
:1012B000FFF798FFFB7903F00F03DBB21846FFF747
:1012C00091FF022001F04CF900BF0837BD4680BDF8
:1012D0000010024080B582B000AF786006E07B6805
:1012E0005A1C7A601B781846FFF7D4FF7B681B787E
:1012F000002BF4D100BF00BF0837BD4680BD80B5CC
:1013000084B000AF03460A46FB711346BB71FB79FC
:10131000002B03D1BB79803BDBB202E0BB79403BC1
:10132000DBB2FB73FB7B1846FFF794FF00BF10375F
:10133000BD4680BD80B500AF142001F011F9022038
:10134000FFF788FF2820FFF785FF0C20FFF782FFBB
:101350000620FFF77FFF0120FFF77CFF022001F04E
:10136000FFF800BF80BD000080B582B000AF87ED00
:10137000010A97ED010A0348FFF7EEFE00BF0837A8
:10138000BD4680BD00FF070880B582B000AF87ED85
:10139000010A97ED010A0348FFF7DEFE00BF083798
:1013A000BD4680BD20FF070880B582B000AF7860E1
:1013B0007B6807EE903AF8EEE77AB0EE670A0348EA
:1013C000FFF7CAFE00BF0837BD4680BD40FF0708D3
:1013D00080B582B000AF0748FFF7D4FEF0EE407A48
:1013E000FDEEE77A17EE903A7B607B681846083787
:1013F000BD4680BD40FF070880B582B000AF0648FB
:10140000FFF7C0FE87ED010A7B6807EE903AB0EE69
:10141000670A0837BD4680BD00FF070880B582B067
:1014200000AF0648FFF7AEFE87ED010A7B6807EEC6
:10143000903AB0EE670A0837BD4680BD20FF070826
:1014400080B582B000AF0346FB71FB79002B09D059
:10145000012210210A4802F013FA0A4B1B68642289
:101460005A6308E000221021054802F009FA054BF2
:101470001B6800225A6300BF0837BD4680BD00BF0D
:10148000000002405002002080B588B000AF002369
:10149000FB613B1D00221A605A609A60DA600123EA
:1014A0007B600123BB600023FB603B1D19461B488A
:1014B00001F03EFA0346002B01D000F053FD17481F
:1014C00001F0B6F84FF0FF31144801F098F91348D5
:1014D00001F020FAF861114801F05EF9FB6907EEAE
:1014E000903AF8EE677AB1EE047A27EE877ADFED6C
:1014F0000C6AC7EE267AC7ED067AD7ED067A9FED1D
:10150000097A67EE877AC7ED057A7B6907EE903A2C
:10151000B0EE670A2037BD4680BD00BF080200203C
:1015200000F07F450000C84280B582B000AF77234D
:10153000FB7000237B601FE0FA787B6842FA03F3BC
:1015400003F00103002B0AD001227B6802FA03F3A7
:101550009BB2012219460C4802F092F909E00122DF
:101560007B6802FA03F39BB200221946064802F098
:1015700087F97B6801337B607B68062BDCDD00BF6D
:1015800000BF0837BD4680BD000C024080B582B068
:1015900000AF00237B600CE001227B6802FA03F3BA
:1015A0009BB200221946074802F06AF97B680133B2
:1015B0007B607B68062BEFDD00BF00BF0837BD46B0
:1015C00080BD00BF000C024080B584B000AF3B4638
:1015D00000221A605A609A60DA6000233B6001239F
:1015E0007B600023BB603B461946114801F0A0F91F
:1015F0000346002B01D000F0B5FC0D4801F018F8AF
:101600004FF0FF310A4801F0FAF8094801F082F979
:101610000346084A1360064801F0BEF8642000F053
:101620009FFF044B1B6818461037BD4680BD00BFA6
:10163000080200202803002080B594B000AF00F01D
:101640001DFF00F007F900F0C3FA00F063F900F0A5
:10165000C3F900F045FA00F091FA00216E4802F05B
:10166000E3FE0020FFF7A0FE9FED6C0AFFF78CFE63
:101670009FED6B0AFFF778FEFFF75CFE002100206C
:10168000FFF73DFE6748FFF725FEC82000F068FF22
:10169000FFF750FE00210020FFF731FE6248FFF700
:1016A00019FE4FF00003FB644FF00003BB6464209D
:1016B00000F056FF5D4B1B78002B21D0FFF73AFE60
:1016C00000210220FFF71BFE5948FFF703FE00F040
:1016D0003BFF0246574B1B68D31AB3F5967F0FD3D7
:1016E0000221554802F0E5F8504B00221A70FFF72E
:1016F00021FE00210020FFF702FE5048FFF7EAFD1F
:101700004F4B1B78002B1AD000F01EFF02464D4BAA
:101710001B68D31AB3F5967F01D9FFF737FF00F0A6
:1017200013FF0246474B1B68D31AB3F5167F06D941
:10173000FFF7FAFE00F008FF0346424A1360FFF786
:10174000A3FE87ED110AFFF769FE87ED130A97EDF7
:10175000137AD7ED117AB4EEE77AF1EE10FA03D5E9
:1017600097ED110AFFF710FEFFF746FE87ED120A0C
:1017700097ED127AD7ED117AB4EEE77AF1EE10FA1E
:1017800003DD97ED110AFFF7EFFD2F4B1B8818467D
:10179000FFF70AFEFFF71CFE00210220FFF7AFFD56
:1017A000786CFEF7D9FE02460B46381D274904F037
:1017B00015FD3B1D1846FFF78DFDD7ED117AB3EEF1
:1017C000097AF4EEC77AF1EE10FA03DB204802F052
:1017D0004BFD0EE0D7ED117AB3EE027AF4EEC77A44
:1017E000F1EE10FA05D81A4802F0A0FD0020FFF72C
:1017F00027FEFFF7E9FE034640F20262934205D955
:10180000012220210C4802F03BF850E70022202161
:10181000094802F035F84AE75002002000000000B5
:1018200000C07944588400086884000846030020FA
:1018300080840008380300200004024094840008DB
:10184000470300204003002044030020B084000828
:101850009802002080B594B000AF07F12003302239
:101860000021184604F01FFD07F10C0300221A6046
:101870005A609A60DA601A610023BB60234B1B6CCC
:10188000224A43F080531364204B1B6C03F08053B7
:10189000BB60BB6800237B601D4B1B6823F4404387
:1018A0001B4A43F400431360194B1B6803F4404385
:1018B0007B607B6802233B620123FB6210233B6356
:1018C0000023BB6307F12003184602F025F8034606
:1018D000002B01D000F046FB0F23FB6000233B618F
:1018E00000237B610023BB610023FB6107F10C0334
:1018F0000021184602F088FA0346002B01D000F0C0
:1019000031FB00BF5037BD4680BD00BF00380240EC
:101910000070004080B584B000AF3B4600221A60E2
:101920005A609A60DA60294B294A1A60274B0022D4
:101930005A60264B00229A60244B01221A61234BE5
:1019400000221A76214B002283F820201F4B002210
:10195000DA621E4B1F4A9A621C4B0022DA601B4B54
:101960000222DA61194B002283F83020174B012242
:101970005A61164800F018FE0346002B01D000F013
:10198000F1FA00233B6001237B600023BB603B46F0
:1019900019460E4800F0CCFF0346002B01D000F0A2
:1019A000E1FA01233B6002237B600023BB603B46DE
:1019B0001946064800F0BCFF0346002B01D000F09A
:1019C000D1FA00BF1037BD4680BD00BF080200201D
:1019D000002001400100000F80B592B000AF07F178
:1019E000400300221A605A6007F1240300221A60A3
:1019F0005A609A60DA601A615A619A613B1D20222E
:101A00000021184604F04FFC334B344A1A60324B25
:101A100054225A60304B00229A602F4B4FF6FF72CF
:101A2000DA602D4B00221A612B4B00225A612A4B9F
:101A300000229A61284802F0A8FC0346002B01D03E
:101A400000F090FA00233B6400237B6407F140031D
:101A50001946214803F012FB0346002B01D000F089
:101A600081FA60237B620023BB620023FB620023B8
:101A70003B6300237B630023BB630023FB6307F10D
:101A8000240300221946144802F06EFE0346002B80
:101A900001D000F067FA00237B600023BB600023C5
:101AA000FB6000233B6100237B614FF40053BB616B
:101AB00000233B623B1D1946074803F04DFB0346DC
:101AC000002B01D000F04EFA034800F005FB00BFE8
:101AD0004837BD4680BD00BF5002002000000140D5
:101AE00080B586B000AF07F1080300221A605A6083
:101AF0009A60DA603B4600221A605A601E4B4FF033
:101B000080421A601C4B42F2CF025A601A4B0022EC
:101B10009A60194B40F2E732DA60174B00221A61E3
:101B2000154B00229A61144802F04EFB0346002B2D
:101B300001D000F017FA4FF48053BB6007F108039F
:101B400019460D4802F0D2FE0346002B01D000F0EA
:101B500009FA00233B6000237B603B461946064898
:101B600003F08CFA0346002B01D000F0FBF900BF14
:101B70001837BD4680BD00BF9802002080B500AF79
:101B8000114B124A1A60104B4FF416525A600E4B0A
:101B900000229A600C4B0022DA600B4B00221A6183
:101BA000094B0C225A61084B00229A61064B002215
:101BB000DA61054803F036FB0346002B01D000F044
:101BC000D1F900BF80BD00BFE0020020004400400A
:101BD00080B58AB000AF07F1140300221A605A6082
:101BE0009A60DA601A6100233B616C4B1B6B6B4A95
:101BF00043F010031363694B1B6B03F010033B614D
:101C00003B690023FB60654B1B6B644A43F0040394
:101C10001363624B1B6B03F00403FB60FB68002340
:101C2000BB605E4B1B6B5D4A43F0010313635B4B70
:101C30001B6B03F00103BB60BB6800237B60574B49
:101C40001B6B564A43F002031363544B1B6B03F0A8
:101C500002037B607B6800233B60504B1B6B4F4A49
:101C600043F0080313634D4B1B6B03F008033B6009
:101C70003B680022FC214A4801F002FE0022382184
:101C8000484801F0FDFD00223021474801F0F8FDF1
:101C900000222321454801F0F3FD0022FF214448A2
:101CA00001F0EEFDFC237B610123BB610023FB619E
:101CB00000233B6207F114031946394801F05CFC2C
:101CC00007237B610023BB610023FB6107F1140341
:101CD0001946344801F050FC38237B610123BB6175
:101CE0000023FB6100233B6207F1140319462D48D2
:101CF00001F042FC1C237B614FF48813BB6100237D
:101D0000FB6107F114031946284801F035FC302324
:101D10007B610123BB610023FB6100233B6207F170
:101D200014031946204801F027FC23237B6101237B
:101D3000BB610023FB6100233B6207F114031946DA
:101D40001A4801F019FCFF237B610123BB610023CA
:101D5000FB6100233B6207F114031946144801F0AC
:101D60000BFC00220021082001F0DBF8082001F024
:101D7000F4F800220021092001F0D3F8092001F035
:101D8000ECF8002200210A2001F0CBF80A2001F033
:101D9000E4F800BF2837BD4680BD00BF00380240D0
:101DA000001002400008024000000240000402400F
:101DB000000C024080B582B000AF0346FB8000F00B
:101DC000C3FB0346404A13603F4B1A683F4B1B68F6
:101DD000D31A042B74D9FB88102B4CD0102B67DC42
:101DE000042B02D0082B2AD062E08021384801F071
:101DF00060FDFFF799FB374B1B8801339AB2354BD7
:101E00001A80354B1B78002B14BF01230023DBB253
:101E100083F00103DBB203F00103DAB22E4B1A7038
:101E20002D4B1B7883F00103DBB2002B01D0FFF7B1
:101E3000ADFB00F089FB0346284A13603BE0284BCA
:101E40001B78002B36D000220121264801F018FD16
:101E50000221244801F02DFD234B01221A7000F0CD
:101E600073FB0346214A13601D4B1B78013BDAB21A
:101E70001B4B1A701EE01A4B1B78062B12D802213E
:101E8000184801F016FD184B01221A7000F05CFB97
:101E90000346164A1360124B1B780133DAB2104B1B
:101EA0001A7008E0012201210E4801F0E9FC02E06D
:101EB00000BF00E000BF044B1B68044A136000E051
:101EC00000BF0837BD4680BD30030020340300202A
:101ED000000C024044030020470300204003002080
:101EE0003C03002000040240460300203803002089
:101EF00080B582B000AF78607B681B68B3F1804F1B
:101F000028D1164B1B780133DAB2144B1A70144BDC
:101F10001B78012B0DD1114B1B78032B09D100200D
:101F2000FFF78EFA0E4B00221A700C4B00221A702B
:101F300010E00B4B1B78002B0CD1084B1B78012BAE
:101F400008D10120FFF77CFA054B01221A70034BE0
:101F500000221A7000BF0837BD4680BD2D03002047
:101F60002C03002080B400AF72B600BF00BFFDE7B5
:101F700080B483B000AF00237B60104B5B6C0F4AD2
:101F800043F4804353640D4B5B6C03F480437B60EC
:101F90007B6800233B60094B1B6C084A43F080536D
:101FA0001364064B1B6C03F080533B603B6800BF1F
:101FB0000C37BD465DF8047B704700BF0038024017
:101FC00080B58AB000AF786007F1140300221A6070
:101FD0005A609A60DA601A617B681B68174A9342FC
:101FE00027D100233B61164B5B6C154A43F4807389
:101FF0005364134B5B6C03F480733B613B690023B8
:10200000FB600F4B1B6B0E4A43F0010313630C4B39
:102010001B6B03F00103FB60FB6803237B6103235D
:10202000BB610023FB6107F114031946054801F069
:10203000A3FA00BF2837BD4680BD00BF0020014085
:10204000003802400000024080B485B000AF7860E4
:102050007B681B680B4A93420DD10023FB600A4B3F
:102060005B6C094A43F001035364074B5B6C03F05C
:102070000103FB60FB6800BF1437BD465DF8047BBD
:10208000704700BF000001400038024080B584B0B6
:1020900000AF78607B681B68B3F1804F15D10023D7
:1020A000FB600C4B1B6C0B4A43F001031364094BA0
:1020B0001B6C03F00103FB60FB68002200211C2065
:1020C00000F02FFF1C2000F048FF00BF1037BD4676
:1020D00080BD00BF0038024080B588B000AF786096
:1020E00007F10C0300221A605A609A60DA601A61E4
:1020F0007B681B68124A93421ED10023BB60114BC0
:102100001B6B104A43F0010313630E4B1B6B03F070
:102110000103BB60BB684FF48073FB6002233B612B
:1021200000237B610023BB610123FB6107F10C03EA
:102130001946054801F020FA00BF2037BD4680BD92
:1021400000000140003802400000024080B58AB023
:1021500000AF786007F1140300221A605A609A6099
:10216000DA601A617B681B68194A93422BD10023FD
:102170003B61184B1B6C174A43F400331364154B37
:102180001B6C03F400333B613B690023FB60114B84
:102190001B6B104A43F0010313630E4B1B6B03F0E0
:1021A0000103FB60FB680C237B610223BB610023FE
:1021B000FB6103233B6207237B6207F1140319468B
:1021C000054801F0D9F900BF2837BD4680BD00BFE2
:1021D00000440040003802400000024080B400AFDC
:1021E00000BFFDE780B400AF00BFFDE780B400AFE3
:1021F00000BFFDE780B400AF00BFFDE780B400AFD3
:1022000000BFFDE780B400AF00BFBD465DF8047BB2
:10221000704780B400AF00BFBD465DF8047B7047D7
:1022200080B400AF00BFBD465DF8047B704780B549
:1022300000AF00F075F900BF80BD80B500AF04208D
:1022400001F052FB00BF80BD80B500AF082001F057
:102250004BFB00BF80BD80B500AF102001F044FBF8
:1022600000BF80BD80B500AF024802F08DF900BF0D
:1022700080BD00BF9802002080B400AF0123184643
:10228000BD465DF8047B704780B582B000AF7860D2
:10229000396004F05BF8034616221A604FF0FF33F2
:1022A00018460837BD4680BD80B582B000AF786063
:1022B0004FF0FF317868FFF7E7FF00BFFDE780B51B
:1022C00086B000AFF860B9607A6000237B610AE0F5
:1022D000AFF300800146BB685A1CBA60CAB21A70DC
:1022E0007B6901337B617A697B689A42F0DB7B68AA
:1022F00018461837BD4680BD80B586B000AFF8607F
:10230000B9607A6000237B6109E0BB685A1CBA603F
:102310001B781846AFF300807B6901337B617A69D3
:102320007B689A42F1DB7B6818461837BD4680BD52
:1023300080B483B000AF78604FF0FF3318460C379D
:10234000BD465DF8047B704780B483B000AF786011
:1023500039603B684FF400525A60002318460C372E
:10236000BD465DF8047B704780B483B000AF7860F1
:10237000012318460C37BD465DF8047B704780B4D6
:1023800085B000AFF860B9607A6000231846143752
:10239000BD465DF8047B704780B586B000AF7860BD
:1023A000144A154BD31A7B617B693B61134B1B6845
:1023B000002B02D1114B124A1A60104B1A687B682D
:1023C00013443A699A4207D203F0C0FF03460C2235
:1023D0001A604FF0FF3309E0084B1B68FB60074BA6
:1023E0001A687B681344054A1360FB68184618375F
:1023F000BD4680BD0080012000040000480300208D
:10240000C004002080B400AF064BD3F88830054AE2
:1024100043F47003C2F8883000BFBD465DF8047B0A
:10242000704700BF00ED00E0DFF834D0FFF7EAFFAF
:102430000C480D490D4A002302E0D458C45004331F
:10244000C4188C42F9D30A4A0A4C002301E01360F5
:102450000432A242FBD303F07FFFFFF7EDF8704791
:102460000080012000000020D401002064880008C2
:10247000D4010020BC040020FEE7000080B500AFBE
:102480000E4B1B680D4A43F4007313600B4B1B6823
:102490000A4A43F480631360084B1B68074A43F4FD
:1024A00080731360032000F031FD0F2000F008F866
:1024B000FFF75EFD0023184680BD00BF003C0240D0
:1024C00080B582B000AF7860124B1A68124B1B784F
:1024D00019464FF47A73B3FBF1F3B2FBF3F31846EA
:1024E00000F049FD0346002B01D001230EE07B687C
:1024F0000F2B0AD8002279684FF0FF3000F011FD51
:10250000064A7B681360002300E001231846083761
:10251000BD4680BD0000002008000020040000200F
:1025200080B400AF064B1B781A46064B1B68134459
:10253000044A136000BFBD465DF8047B704700BFCE
:10254000080000204C03002080B400AF034B1B6840
:102550001846BD465DF8047B704700BF4C03002061
:1025600080B584B000AF7860FFF7EEFFB8607B689D
:10257000FB60FB68B3F1FF3F05D00A4B1B781A469E
:10258000FB681344FB6000BFFFF7DEFF0246BB6839
:10259000D31AFA689A42F7D800BF00BF1037BD4679
:1025A00080BD00BF0800002080B584B000AF786017
:1025B0000023FB737B68002B01D1012333E07B6890
:1025C0001B6C002B09D17868FFF7FAFC7B680022AE
:1025D0005A647B68002283F83C207B681B6C03F004
:1025E0001003002B18D17B681B6C23F4885323F055
:1025F000020343F002027B681A64786800F0BAFABA
:102600007B6800225A647B681B6C23F0030343F051
:1026100001027B681A6401E00123FB737B680022DE
:1026200083F83C20FB7B18461037BD4680BD000078
:1026300080B485B000AF78600023BB607B6893F8FE
:102640003C30012B01D1022397E07B68012283F803
:102650003C207B681B689B6803F00103012B18D0AA
:102660007B681B689A687B681B6842F001029A606D
:10267000454B1B68454AA2FB03239A0C13465B009B
:102680001344BB6002E0BB68013BBB60BB68002B2E
:10269000F9D17B681B689B6803F00103012B5FD1B4
:1026A0007B681B6C23F4E06323F0010343F4807226
:1026B0007B681A647B681B685B6803F48063002B8B
:1026C00007D07B681B6C23F4405343F480527B6833
:1026D0001A647B681B6C03F48053B3F5805F06D1EA
:1026E0007B685B6C23F006027B685A6402E07B68BF
:1026F00000225A647B68002283F83C20244BFB6054
:102700007B681B686FF022021A60FB685B6803F04D
:102710001F03002B0FD17B681B689B6803F040539D
:10272000002B29D17B681B689A687B681B6842F084
:1027300080429A6020E07B681B68164A93421BD156
:102740007B681B689B6803F04053002B14D17B68A7
:102750001B689A687B681B6842F080429A600BE0B5
:102760007B681B6C43F010027B681A647B685B6CAF
:1027700043F001027B685A64002318461437BD46B3
:102780005DF8047B704700BF0000002083DE1B4320
:10279000002301400020014080B483B000AF786086
:1027A0007B6893F83C30012B01D1022321E07B6848
:1027B000012283F83C207B681B689A687B681B6851
:1027C00022F001029A607B681B689B6803F001039A
:1027D000002B09D17B681B6C23F4885323F0010381
:1027E00043F001027B681A647B68002283F83C2076
:1027F000002318460C37BD465DF8047B704780B552
:1028000084B000AF786039600023FB607B681B6890
:102810009B6803F48063B3F5806F13D17B681B68FA
:102820009B6803F48073B3F5807F0BD17B681B6CCE
:1028300043F020027B681A647B68002283F83C2006
:10284000012363E0FFF780FEF86021E03B68B3F10D
:10285000FF3F1DD03B68002B07D0FFF775FE0246F7
:10286000FB68D31A3A689A4212D27B681B681B68CD
:1028700003F00203022B0BD07B681B6C43F00402B5
:102880007B681A647B68002283F83C2003233DE0C8
:102890007B681B681B6803F00203022BD6D17B68A0
:1028A0001B686FF012021A607B681B6C43F40072A5
:1028B0007B681A647B681B689B6803F04053002B9D
:1028C00023D17B681B7E002B1FD17B681B68DB6AD2
:1028D00003F47003002B06D07B681B689B6803F42D
:1028E0008063002B11D17B681B6C23F480727B68A2
:1028F0001A647B681B6C03F48053002B05D17B6842
:102900001B6C43F001027B681A64002318461037E1
:10291000BD4680BD80B483B000AF78607B681B6823
:10292000DB6C18460C37BD465DF8047B7047000031
:1029300080B485B000AF786039600023BB607B68ED
:1029400093F83C30012B01D1022305E17B68012281
:1029500083F83C203B681B68092B25D97B681B68E2
:10296000D9683B681B689BB21A4613465B00134448
:102970001E3B072202FA03F3DA437B681B680A4016
:10298000DA607B681B68D9683B689A683B681B689B
:102990009BB2184603465B0003441E3B9A407B688B
:1029A0001B680A43DA6022E07B681B6819693B6890
:1029B0001B689BB21A4613465B001344072202FAB7
:1029C00003F3DA437B681B680A401A617B681B6863
:1029D00019693B689A683B681B689BB218460346B6
:1029E0005B0003449A407B681B680A431A613B689A
:1029F0005B68062B24D87B681B68596B3B685A6858
:102A000013469B001344053B1F2202FA03F3DA43EB
:102A10007B681B680A405A637B681B68596B3B687C
:102A20001B689BB218463B685A6813469B001344C8
:102A3000053B00FA03F27B681B680A435A634CE0CB
:102A40003B685B680C2B24D87B681B68196B3B6860
:102A50005A6813469B001344233B1F2202FA03F3D8
:102A6000DA437B681B680A401A637B681B68196B32
:102A70003B681B689BB218463B685A6813469B002C
:102A80001344233B00FA03F27B681B680A431A6372
:102A900023E07B681B68D96A3B685A6813469B0031
:102AA0001344413B1F2202FA03F3DA437B681B689D
:102AB0000A40DA627B681B68D96A3B681B689BB274
:102AC00018463B685A6813469B001344413B00FA82
:102AD00003F27B681B680A43DA62224BFB607B6867
:102AE0001B68214A934209D13B681B68122B05D110
:102AF000FB685B6843F48002FB685A607B681B6874
:102B0000194A934223D13B681B68102B03D03B68C2
:102B10001B68112B1BD1FB685B6843F40002FB6848
:102B20005A603B681B68102B11D1104B1B68104A70
:102B3000A2FB03239A0C13469B0013445B00BB606B
:102B400002E0BB68013BBB60BB68002BF9D17B682E
:102B5000002283F83C20002318461437BD465DF858
:102B6000047B70470023014000200140000000204A
:102B700083DE1B4380B485B000AF7860794BFB6087
:102B8000FB685B6823F44032FB685A60FB685A6854
:102B90007B685B681A43FB685A607B681B685A68ED
:102BA0007B681B6822F480725A607B681B685968D6
:102BB0007B681B691A027B681B680A435A607B6842
:102BC0001B685A687B681B6822F040725A607B68F9
:102BD0001B6859687B689A687B681B680A435A605F
:102BE0007B681B689A687B681B6822F400629A60A5
:102BF0007B681B6899687B68DA687B681B680A4396
:102C00009A607B689B6A584A934222D07B681B6813
:102C10009A687B681B6822F070629A607B681B6808
:102C200099687B689A6A7B681B680A439A607B682C
:102C30001B689A687B681B6822F040529A607B6828
:102C40001B6899687B68DA6A7B681B680A439A602C
:102C50000FE07B681B689A687B681B6822F07062D3
:102C60009A607B681B689A687B681B6822F04052F8
:102C70009A607B681B689A687B681B6822F0020276
:102C80009A607B681B6899687B681B7E5A007B682A
:102C90001B680A439A607B6893F82030002B1BD096
:102CA0007B681B685A687B681B6842F400625A6044
:102CB0007B681B685A687B681B6822F460425A6014
:102CC0007B681B6859687B685B6A013B5A037B68B9
:102CD0001B680A435A6007E07B681B685A687B6878
:102CE0001B6822F400625A607B681B68DA6A7B68A2
:102CF0001B6822F47002DA627B681B68D96A7B6801
:102D0000DB69013B1A057B681B680A43DA627B6852
:102D10001B689A687B681B6822F400729A607B6863
:102D20001B6899687B6893F830305A027B681B688F
:102D30000A439A607B681B689A687B681B6822F468
:102D400080629A607B681B6899687B685B699A02FD
:102D50007B681B680A439A6000BF1437BD465DF864
:102D6000047B7047002301400100000F80B485B050
:102D700000AF78607B6803F00703FB600C4BDB68F7
:102D8000BB60BA684FF6FF031340BB60FB681A02D2
:102D9000BB68134343F0BF6343F40033BB60044A92
:102DA000BB68D36000BF1437BD465DF8047B704735
:102DB00000ED00E080B400AF044BDB681B0A03F0B9
:102DC00007031846BD465DF8047B704700ED00E040
:102DD00080B483B000AF0346FB7197F90730002B36
:102DE0000BDBFB7903F01F02074997F907305B09FA
:102DF000012000FA02F241F8232000BF0C37BD4643
:102E00005DF8047B704700BF00E100E080B483B050
:102E100000AF03463960FB7197F90730002B0ADBDE
:102E20003B68DAB20C4997F907301201D2B20B4471
:102E300083F800230AE03B68DAB20849FB7903F023
:102E40000F03043B1201D2B20B441A7600BF0C37B9
:102E5000BD465DF8047B704700E100E000ED00E056
:102E600080B489B000AFF860B9607A60FB6803F0A5
:102E70000703FB61FB69C3F10703042B28BF04238D
:102E8000BB61FB690433062B02D9FB69033B00E0FD
:102E900000237B614FF0FF32BB6902FA03F3DA4390
:102EA000BB681A407B699A404FF0FF317B6901FA99
:102EB00003F3D9437B680B40134318462437BD46C0
:102EC0005DF8047B7047000080B582B000AF786089
:102ED0007B68013BB3F1807F01D301230FE00A4AF5
:102EE0007B68013B53600F214FF0FF30FFF78EFFEF
:102EF000054B00229A60044B07221A6000231846F3
:102F00000837BD4680BD00BF10E000E080B582B04C
:102F100000AF78607868FFF729FF00BF0837BD462B
:102F200080BD80B586B000AF0346B9607A60FB73A0
:102F300000237B61FFF73EFF78617A68B9687869A2
:102F4000FFF78EFF024697F90F3011461846FFF73C
:102F50005DFF00BF1837BD4680BD80B582B000AFB1
:102F60000346FB7197F907301846FFF731FF00BFA2
:102F70000837BD4680BD80B582B000AF7860786804
:102F8000FFF7A2FF034618460837BD4680BD000084
:102F900080B586B000AFF860B960C7E900230123AF
:102FA000FB75234B1B7E012B01D102233BE0204B01
:102FB00001221A764CF2503000F07CF80346FB7583
:102FC000FB7D002B2BD1FB68002B05D13B781946EC
:102FD000B86800F027F916E0FB68012B05D13B88A3
:102FE0001946B86800F0FAF80DE0FB68022B05D12D
:102FF0003B681946B86800F0CFF804E0D7E9002331
:10300000B86800F097F84CF2503000F053F80346DF
:10301000FB75084B1B69074A23F001031361044B3E
:1030200000221A76FB7D18461837BD4680BD00BFCA
:1030300050030020003C024080B483B000AF002366
:10304000FB710B4B1B69002B0BDA094B094A5A60C9
:10305000074B094A5A60064B1B69002B01DA012312
:10306000FB71FB7918460C37BD465DF8047B704751
:10307000003C024023016745AB89EFCD80B400AF2F
:10308000054B1B69044A43F00043136100231846B3
:10309000BD465DF8047B7047003C024080B400AF41
:1030A000034BDB691846BD465DF8047B704700BFE3
:1030B0005003002080B584B000AF78600023FB602F
:1030C0001A4B0022DA61FFF73FFAF86010E07B68E4
:1030D000B3F1FF3F0CD07B68002B07D0FFF734FA29
:1030E0000246FB68D31A7A689A4201D2032319E098
:1030F0000F4BDB6803F48033002BE8D10C4BDB680B
:1031000003F00103002B02D0094B0122DA60084BC7
:10311000DB6803F4F973002B03D000F0A5F801235A
:1031200000E0002318461037BD4680BD5003002044
:10313000003C024080B485B000AFF860C7E90023CE
:10314000144B1B69134A23F440731361114B1B6921
:10315000104A43F4407313610E4B1B690D4A43F050
:1031600001031361FB683A681A60BFF36F8F00BFF9
:10317000D7E900014FF000024FF000030A000023DE
:10318000F968043113460B6000BF1437BD465DF883
:10319000047B7047003C024080B483B000AF78608D
:1031A00039600D4B1B690C4A23F4407313610A4BC1
:1031B0001B69094A43F400731361074B1B69064AF4
:1031C00043F0010313617B683A681A6000BF0C3753
:1031D000BD465DF8047B7047003C024080B483B07C
:1031E00000AF78600B467B800D4B1B690C4A23F4C3
:1031F000407313610A4B1B69094A43F480731361DE
:10320000074B1B69064A43F0010313617B687A8808
:103210001A8000BF0C37BD465DF8047B704700BFC5
:10322000003C024080B483B000AF78600B46FB7076
:103230000C4B1B690B4A23F440731361094B094A79
:103240001B691361074B1B69064A43F001031361B5
:103250007B68FA781A7000BF0C37BD465DF8047BB6
:10326000704700BF003C024080B400AF2F4BDB68CA
:1032700003F01003002B08D02D4BDB6943F0100343
:103280002B4AD361294B1022DA60284BDB6803F00C
:103290002003002B08D0264BDB6943F00803244AA7
:1032A000D361224B2022DA60204BDB6803F040031D
:1032B000002B08D01E4BDB6943F004031C4AD3618A
:1032C0001A4B4022DA60194BDB6803F08003002BB5
:1032D00008D0174BDB6943F00203154AD361134B47
:1032E0008022DA60114BDB6803F48073002B09D075
:1032F0000F4BDB6943F001030D4AD3610B4B4FF4D5
:103300008072DA60094BDB6803F00203002B08D0FF
:10331000074BDB6943F02003054AD361034B0222CC
:10332000DA6000BFBD465DF8047B7047003C024098
:103330005003002080B584B000AF7860396001236D
:10334000FB730023BB60314B1B7E012B01D1022399
:1033500058E02E4B01221A764CF25030FFF7AAFEAD
:103360000346FB73FB7B002B48D13B684FF0FF32D9
:103370001A607B681B68012B15D17B681B69DAB268
:103380007B685B681946104600F044F84CF25030F8
:10339000FFF790FE0346FB731D4B1B691C4A23F08D
:1033A0000403136128E07B689B68BB601CE07B68BA
:1033B0001B69DBB21946B86800F050F84CF2503087
:1033C000FFF778FE0346FB73114B1B69104A23F08D
:1033D000FA031361FB7B002B03D03B68BA681A60C9
:1033E0000AE0BB680133BB607B68DA687B689B6876
:1033F0001344BA689A42DAD300F078F8034B0022FB
:103400001A76FB7B18461037BD4680BD500300205E
:10341000003C024080B483B000AF03463960FB71CA
:103420000D4B1B690C4A23F4407313610A4B1B6953
:10343000094A43F004031361074B1A69FB791B0225
:103440001343054A43F48033136100BF0C37BD4674
:103450005DF8047B704700BF003C024080B485B03B
:1034600000AF78600B46FB700023FB60FB78002BFD
:1034700002D10023FB6010E0FB78012B03D14FF455
:103480008073FB6009E0FB78022B03D14FF40073DB
:10349000FB6002E04FF44073FB60134B1B69124A60
:1034A00023F440731361104B1A690F49FB681343EF
:1034B0000B610D4B1B690C4A23F0F80313610A4B97
:1034C0001A697B68DB001343074A43F00203136168
:1034D000054B1B69044A43F48033136100BF143762
:1034E000BD465DF8047B7047003C024080B400AFED
:1034F000204B1B6803F40073002B17D01D4B1B6877
:103500001C4A23F4007313601A4B1B68194A43F4D6
:1035100000631360174B1B68164A23F400631360A3
:10352000144B1B68134A43F400731360114B1B6860
:1035300003F48063002B17D00E4B1B680D4A23F455
:10354000806313600B4B1B680A4A43F4805313607B
:10355000084B1B68074A23F480531360054B1B6814
:10356000044A43F48063136000BFBD465DF8047BEA
:10357000704700BF003C024080B489B000AF786063
:10358000396000237B6100233B610023BB61002382
:10359000FB6159E10122FB6902FA03F37B613B689D
:1035A0001B687A6913403B613A697B699A4240F033
:1035B00048813B685B6803F00303012B05D03B683F
:1035C0005B6803F00303022B30D17B689B68BB610F
:1035D000FB695B00032202FA03F3DB43BA69134081
:1035E000BB613B68DA68FB695B0002FA03F3BA6906
:1035F0001343BB617B68BA699A607B685B68BB6197
:103600000122FB6902FA03F3DB43BA691340BB6191
:103610003B685B681B0903F00102FB6902FA03F3D4
:10362000BA691343BB617B68BA695A603B685B68DF
:1036300003F00303032B17D07B68DB68BB61FB69D6
:103640005B00032202FA03F3DB43BA691340BB6158
:103650003B689A68FB695B0002FA03F3BA6913439B
:10366000BB617B68BA69DA603B685B6803F003039F
:10367000022B23D1FB69DA087B68083253F8223029
:10368000BB61FB6903F007039B000F2202FA03F3FF
:10369000DB43BA691340BB613B681A69FB6903F0FD
:1036A00007039B0002FA03F3BA691343BB61FB698A
:1036B000DA087B680832B96943F822107B681B6816
:1036C000BB61FB695B00032202FA03F3DB43BA69C7
:1036D0001340BB613B685B6803F00302FB695B005E
:1036E00002FA03F3BA691343BB617B68BA691A60D3
:1036F0003B685B6803F44033002B00F0A28000239A
:10370000FB60574B5B6C564A43F480435364544B05
:103710005B6C03F48043FB60FB68524AFB699B08C7
:10372000023352F82330BB61FB6903F003039B00B3
:103730000F2202FA03F3DB43BA691340BB617B68D3
:10374000494A934219D07B68484A934213D07B6818
:10375000474A93420DD07B68464A934207D07B6824
:10376000454A934201D1042308E0072306E00323DE
:1037700004E0022302E0012300E00023FA6902F0E2
:10378000030292009340BA691343BB613549FB6958
:103790009B080233BA6941F82320384B9B68BB6110
:1037A0003B69DB43BA691340BB613B685B6803F468
:1037B0008013002B03D0BA693B691343BB612F4AC6
:1037C000BB6993602D4BDB68BB613B69DB43BA6926
:1037D0001340BB613B685B6803F40013002B03D00C
:1037E000BA693B691343BB61244ABB69D360234B6D
:1037F0005B68BB613B69DB43BA691340BB613B68F3
:103800005B6803F40033002B03D0BA693B691343B0
:10381000BB611A4ABB695360184B1B68BB613B69AB
:10382000DB43BA691340BB613B685B6803F48033D8
:10383000002B03D0BA693B691343BB610F4ABB69D4
:103840001360FB690133FB61FB690F2B7FF6A2AEAE
:1038500000BF00BF2437BD465DF8047B704700BF42
:1038600000380240003801400000024000040240DD
:1038700000080240000C024000100240003C0140E1
:1038800080B483B000AF78600B467B8013467B70BA
:103890007B78002B03D07A887B689A6103E07B8871
:1038A0001A047B689A6100BF0C37BD465DF8047B43
:1038B000704780B485B000AF78600B467B807B6832
:1038C0005B69FB607A88FB6813401A04FB68D94384
:1038D0007B880B401A437B689A6100BF1437BD4652
:1038E0005DF8047B7047000080B582B000AF0346EE
:1038F000FB80084B5A69FB881340002B06D0054A11
:10390000FB885361FB881846FEF754FA00BF08375E
:10391000BD4680BD003C014080B586B000AF7860F8
:103920007B68002B01D1012367E27B681B6803F0F1
:103930000103002B75D0884B9B6803F00C03042B0C
:103940000CD0854B9B6803F00C03082B12D1824BE3
:103950005B6803F48003B3F5800F0BD17E4B1B68CB
:1039600003F40033002B5BD07B685B68002B57D1DE
:10397000012342E27B685B68B3F5803F06D1764B5A
:103980001B68754A43F4803313601DE07B685B68F5
:10399000B3F5A02F0CD1704B1B686F4A43F4802302
:1039A00013606D4B1B686C4A43F4803313600BE06B
:1039B000694B1B68684A23F480331360664B1B68AD
:1039C000654A23F4802313607B685B68002B13D067
:1039D000FEF7BAFD386108E0FEF7B6FD02463B6926
:1039E000D31A642B01D9032307E25B4B1B6803F452
:1039F0000033002BF0D014E0FEF7A6FD386108E09C
:103A0000FEF7A2FD02463B69D31A642B01D90323BA
:103A1000F3E1514B1B6803F40033002BF0D100E0BD
:103A200000BF7B681B6803F00203002B63D04A4B86
:103A30009B6803F00C03002B0BD0474B9B6803F0F3
:103A40000C03082B1CD1444B5B6803F48003002B50
:103A500016D1414B1B6803F00203002B05D07B6895
:103A6000DB68012B01D00123C7E13B4B1B6823F02E
:103A7000F8027B681B69DB00374913430B603AE0AF
:103A80007B68DB68002B20D0344B01221A60FEF7E4
:103A90005BFD386108E0FEF757FD02463B69D31A2B
:103AA000022B01D90323A8E12B4B1B6803F002036F
:103AB000002BF0D0284B1B6823F0F8027B681B69B1
:103AC000DB00254913430B6015E0244B00221A60EC
:103AD000FEF73AFD386108E0FEF736FD02463B6925
:103AE000D31A022B01D9032387E11B4B1B6803F078
:103AF0000203002BF0D17B681B6803F00803002B46
:103B000036D07B685B69002B16D0154B01221A60FA
:103B1000FEF71AFD386108E0FEF716FD02463B6924
:103B2000D31A022B01D9032367E10B4B5B6F03F020
:103B30000203002BF0D01BE0094B00221A60FEF7B5
:103B400003FD38610EE0FEF7FFFC02463B69D31A25
:103B5000022B07D9032350E10038024000004742FE
:103B6000800E4742884B5B6F03F00203002BEAD1C3
:103B70007B681B6803F00403002B00F09780002390
:103B8000FB75814B1B6C03F08053002B0FD100237E
:103B9000BB607D4B1B6C7C4A43F0805313647A4BB3
:103BA0001B6C03F08053BB60BB680123FB75774B34
:103BB0001B6803F48073002B18D1744B1B68734A85
:103BC00043F480731360FEF7BFFC386108E0FEF732
:103BD000BBFC02463B69D31A022B01D903230CE13B
:103BE0006A4B1B6803F48073002BF0D07B689B68E2
:103BF000012B06D1644B1B6F634A43F0010313672B
:103C00001CE07B689B68052B0CD15F4B1B6F5E4AE9
:103C100043F0040313675C4B1B6F5B4A43F00103E3
:103C200013670BE0584B1B6F574A23F001031367D0
:103C3000554B1B6F544A23F0040313677B689B6842
:103C4000002B15D0FEF780FC38610AE0FEF77CFC03
:103C500002463B69D31A41F28832934201D90323C9
:103C6000CBE0494B1B6F03F00203002BEED014E0B6
:103C7000FEF76AFC38610AE0FEF766FC02463B6923
:103C8000D31A41F28832934201D90323B5E03E4B67
:103C90001B6F03F00203002BEED1FB7D012B05D13E
:103CA000394B1B6C384A23F0805313647B689B6943
:103CB000002B00F0A180344B9B6803F00C03082B11
:103CC0005CD07B689B69022B41D1314B00221A608A
:103CD000FEF73AFC386108E0FEF736FC02463B6925
:103CE000D31A022B01D9032387E0274B1B6803F06B
:103CF0000073002BF0D17B68DA697B681B6A1A437A
:103D00007B685B6A9B011A437B689B6A5B08013B8B
:103D10001B041A437B68DB6A1B061B4913434B6079
:103D20001B4B01221A60FEF70FFC386108E0FEF71A
:103D30000BFC02463B69D31A022B01D903235CE03A
:103D4000114B1B6803F00073002BF0D054E0104BB4
:103D500000221A60FEF7F8FB386108E0FEF7F4FB7A
:103D600002463B69D31A022B01D9032345E0064BD7
:103D70001B6803F00073002BF0D13DE07B689B696A
:103D8000012B07D1012338E00038024000700040C9
:103D9000600047421B4B5B68FB607B689B69012BA3
:103DA00028D0FB6803F480027B68DB699A4221D14A
:103DB000FB6803F03F027B681B6A9A421AD1FA68DB
:103DC00047F6C07313407A68526A9201934211D148
:103DD000FB6803F440327B689B6A5B08013B1B0471
:103DE0009A4207D1FB6803F070627B68DB6A1B06AE
:103DF0009A4201D0012300E0002318461837BD463F
:103E000080BD00BF0038024080B584B000AF78604C
:103E100039607B68002B01D10123CCE0684B1B6823
:103E200003F007033A689A420CD9654B3A68D2B25C
:103E30001A70634B1B6803F007033A689A4201D07B
:103E40000123B8E07B681B6803F00203002B20D03D
:103E50007B681B6803F00403002B05D0594B9B685B
:103E6000584A43F4E05393607B681B6803F00803EF
:103E7000002B05D0534B9B68524A43F46043936038
:103E8000504B9B6823F0F0027B689B684D491343BD
:103E90008B607B681B6803F00103002B44D07B68B8
:103EA0005B68012B07D1474B1B6803F40033002BE1
:103EB00019D101237FE07B685B68022B03D07B680C
:103EC0005B68032B07D13F4B1B6803F00073002B8B
:103ED00009D101236FE03B4B1B6803F00203002B69
:103EE00001D1012367E0374B9B6823F003027B6815
:103EF0005B68344913438B60FEF726FBF8600AE0E9
:103F0000FEF722FB0246FB68D31A41F28832934245
:103F100001D903234FE02B4B9B6803F00C027B6815
:103F20005B689B009A42EBD1254B1B6803F00703AB
:103F30003A689A420CD2224B3A68D2B21A70204B9D
:103F40001B6803F007033A689A4201D0012332E06C
:103F50007B681B6803F00403002B08D0194B9B6897
:103F600023F4E0527B68DB68164913438B607B685F
:103F70001B6803F00803002B09D0124B9B6823F445
:103F800060427B681B69DB000E4913438B6000F0C5
:103F900021F802460B4B9B681B0903F00F030A49EB
:103FA000CB5C22FA03F3094A1360094B1B681846DD
:103FB000FEF786FA002318461037BD4680BD00BFC5
:103FC000003C024000380240C88400080000002085
:103FD000040000202DE9B04F90B000AF00237B63B8
:103FE0000023FB6300233B630023BB63594B9B68A7
:103FF00003F00C03082B0DD0082B00F2A180002B3E
:1040000002D0042B03D09BE0534BBB639BE0534B8C
:10401000BB6398E04F4B5B6803F03F037B634D4B02
:104020005B6803F48003002B28D04A4B5B689B0934
:1040300000223B627A623B6AC3F308000021474BCF
:1040400003FB01F2002300FB03F31344434AA0FBEC
:104050000212FA620A46BA62FA6A1344FB627B6B86
:104060000022BB61FA61D7E90623D7E90A01FCF710
:10407000A3FD02460B461346FB6353E0354B5B68DA
:104080009B0900223B617A613B69C3F3080A4FF048
:10409000000B52465B464FF000004FF00001590103
:1040A00041EAD261500102460B46B2EB0A0863EBCB
:1040B0000B094FF000024FF000034FEA891343EA67
:1040C00098634FEA8812B2EB080463EB09054FF0DE
:1040D00000024FF00003EB0043EA5473E200144681
:1040E0001D4614EB0A033B6045EB0B037B604FF06E
:1040F00000024FF00003D7E9004529468B02214614
:1041000043EA915321468A02104619467B6B0022EE
:10411000BB60FA60D7E90223FCF74EFD02460B466E
:104120001346FB630B4B5B681B0C03F0030301336B
:104130005B003B63FA6B3B6BB2FBF3F3BB6302E0E8
:10414000054BBB6300BFBB6B18464037BD46BDE89F
:10415000B08F00BF003802400024F40040787D0199
:1041600080B400AF034B1B681846BD465DF8047B66
:10417000704700BF0000002080B500AFFFF7F0FFE0
:104180000246054B9B689B0A03F007030349CB5C7F
:1041900022FA03F3184680BD00380240D884000894
:1041A00080B500AFFFF7DCFF0246054B9B685B0B59
:1041B00003F007030349CB5C22FA03F3184680BDE2
:1041C00000380240D884000880B582B000AF786023
:1041D0007B68002B01D1012341E07B6893F83D30DF
:1041E000DBB2002B06D17B68002283F83C20786884
:1041F000FDF74CFF7B68022283F83D207B681A683C
:104200007B6804331946104600F060FC7B6801228D
:1042100083F846207B68012283F83E207B680122D8
:1042200083F83F207B68012283F840207B680122CD
:1042300083F841207B68012283F842207B680122B9
:1042400083F843207B68012283F844207B680122A5
:1042500083F845207B68012283F83D20002318461F
:104260000837BD4680BD000080B485B000AF7860DF
:104270007B6893F83D30DBB2012B01D0012344E091
:104280007B68022283F83D207B681B68DA687B68C4
:104290001B6842F00102DA607B681B681E4A934289
:1042A00018D07B681B68B3F1804F13D07B681B6804
:1042B0001A4A93420ED07B681B68194A934209D070
:1042C0007B681B68174A934204D07B681B68164AB8
:1042D000934211D17B681B689B6803F00703FB6066
:1042E000FB68062B10D07B681B681A687B681B680C
:1042F00042F001021A6007E07B681B681A687B685D
:104300001B6842F001021A60002318461437BD46AC
:104310005DF8047B704700BF0000014000040040CE
:1043200000080040000C00400040014080B483B011
:1043300000AF78607B681B68DA687B681B6822F0D6
:104340000102DA607B681B681A6A41F2111313409C
:10435000002B0FD17B681B681A6A40F2444313405C
:10436000002B07D17B681B681A687B681B6822F0EA
:1043700001021A607B68012283F83D200023184661
:104380000C37BD465DF8047B704780B582B000AF46
:1043900078607B68002B01D1012341E07B6893F8B2
:1043A0003D30DBB2002B06D17B68002283F83C2035
:1043B0007868FDF749FE7B68022283F83D207B6820
:1043C0001A687B6804331946104600F07FFB7B684F
:1043D000012283F846207B68012283F83E207B6817
:1043E000012283F83F207B68012283F840207B680C
:1043F000012283F841207B68012283F842207B68F8
:10440000012283F843207B68012283F844207B68E3
:10441000012283F845207B68012283F83D20002398
:1044200018460837BD4680BD80B584B000AF7860BF
:1044300039603B68002B09D17B6893F83E30DBB2D2
:10444000012B14BF01230023DBB222E03B68042BC5
:1044500009D17B6893F83F30DBB2012B14BF0123F5
:104460000023DBB215E03B68082B09D17B6893F889
:104470004030DBB2012B14BF01230023DBB208E084
:104480007B6893F84130DBB2012B14BF012300237A
:10449000DBB2002B01D0012368E03B68002B04D184
:1044A0007B68022283F83E2013E03B68042B04D192
:1044B0007B68022283F83F200BE03B68082B04D185
:1044C0007B68022283F8402003E07B68022283F8A5
:1044D00041207B681B6801223968184600F0A8FD5E
:1044E0007B681B68234A934207D17B681B685A6C20
:1044F0007B681B6842F400425A647B681B681D4A53
:10450000934218D07B681B68B3F1804F13D07B684F
:104510001B68194A93420ED07B681B68174A934266
:1045200009D07B681B68164A934204D07B681B68DD
:10453000144A934211D17B681B689B6803F0070300
:10454000FB60FB68062B10D07B681B681A687B68D1
:104550001B6842F001021A6007E07B681B681A685A
:104560007B681B6842F001021A600023184610376E
:10457000BD4680BD0000014000040040000800402E
:10458000000C00400040014080B584B000AF78606E
:104590007B681B68DB68FB607B681B681B69BB6012
:1045A000BB6803F00203002B20D0FB6803F002037A
:1045B000002B1BD07B681B686FF002021A617B68BE
:1045C00001221A777B681B689B6903F00303002BA9
:1045D00003D0786800F05BFA05E0786800F04DFAE7
:1045E000786800F05EFA7B6800221A77BB6803F0F7
:1045F0000403002B20D0FB6803F00403002B1BD026
:104600007B681B686FF004021A617B6802221A77CC
:104610007B681B689B6903F44073002B03D07868A8
:1046200000F035FA05E0786800F027FA786800F0C5
:1046300038FA7B6800221A77BB6803F00803002B66
:1046400020D0FB6803F00803002B1BD07B681B689D
:104650006FF008021A617B6804221A777B681B6876
:10466000DB6903F00303002B03D0786800F00FFA36
:1046700005E0786800F001FA786800F012FA7B68CB
:1046800000221A77BB6803F01003002B20D0FB68D0
:1046900003F01003002B1BD07B681B686FF0100227
:1046A0001A617B6808221A777B681B68DB6903F450
:1046B0004073002B03D0786800F0E9F905E07868D2
:1046C00000F0DBF9786800F0ECF97B6800221A77DB
:1046D000BB6803F00103002B0CD0FB6803F001035F
:1046E000002B07D07B681B686FF001021A617868A5
:1046F000FDF7FEFBBB6803F08003002B0CD0FB68CA
:1047000003F08003002B07D07B681B686FF08002EA
:104710001A61786800F07CFDBB6803F04003002B51
:104720000CD0FB6803F04003002B07D07B681B68AC
:104730006FF040021A61786800F0BDF9BB6803F0C1
:104740002003002B0CD0FB6803F02003002B07D0C4
:104750007B681B686FF020021A61786800F04EFDDC
:1047600000BF1037BD4680BD80B586B000AFF86091
:10477000B9607A600023FB75FB6893F83C30012B2D
:1047800001D10223AEE0FB68012283F83C207B6864
:104790000C2B00F29F8001A252F823F0D1470008B1
:1047A000D5480008D5480008D54800081148000839
:1047B000D5480008D5480008D548000853480008E7
:1047C000D5480008D5480008D54800089348000897
:1047D000FB681B68B968184600F004FAFB681B68A0
:1047E0009A69FB681B6842F008029A61FB681B68C3
:1047F0009A69FB681B6822F004029A61FB681B68D7
:104800009969BB681A69FB681B680A439A6164E08E
:10481000FB681B68B968184600F04AFAFB681B6819
:104820009A69FB681B6842F400629A61FB681B6826
:104830009A69FB681B6822F480629A61FB681B68B6
:104840009969BB681B691A02FB681B680A439A6175
:1048500043E0FB681B68B968184600F095FAFB68EE
:104860001B68DA69FB681B6842F00802DA61FB68C2
:104870001B68DA69FB681B6822F00402DA61FB68D6
:104880001B68D969BB681A69FB681B680A43DA614F
:1048900023E0FB681B68B968184600F0DFFAFB6884
:1048A0001B68DA69FB681B6842F40062DA61FB6826
:1048B0001B68DA69FB681B6822F48062DA61FB68B6
:1048C0001B68D969BB681B691A02FB681B680A432D
:1048D000DA6102E00123FB7500BFFB68002283F868
:1048E0003C20FB7D18461837BD4680BD80B584B09E
:1048F00000AF786039600023FB737B6893F83C302D
:10490000012B01D10223B4E07B68012283F83C2013
:104910007B68022283F83D207B681B689B68BB6034
:10492000BB6823F07703BB60BB6823F47F43BB60A5
:104930007B681B68BA689A603B681B68B3F5005FC8
:104940003ED0B3F5005F00F28780B3F5805F00F0E2
:104950008680B3F5805F7FD8702B1AD0702B7BD800
:10496000602B50D0602B77D8502B3CD0502B73D875
:10497000402B58D0402B6FD8302B64D0302B6BD8C5
:10498000202B60D0202B67D8002B5CD0102B5AD066
:1049900062E07B6818683B6899683B685A683B68C6
:1049A000DB6800F025FB7B681B689B68BB60BB680D
:1049B00043F07703BB607B681B68BA689A604FE07E
:1049C0007B6818683B6899683B685A683B68DB6895
:1049D00000F00EFB7B681B689A687B681B6842F4DA
:1049E00080429A603CE07B6818683B6859683B6885
:1049F000DB681A4600F082FA7B681B685021184673
:104A000000F0DBFA2CE07B6818683B6859683B686B
:104A1000DB681A4600F0A1FA7B681B686021184623
:104A200000F0CBFA1CE07B6818683B6859683B686B
:104A3000DB681A4600F062FA7B681B684021184662
:104A400000F0BBFA0CE07B681A683B681B681946EB
:104A5000104600F0B2FA03E00123FB7300E000BF50
:104A60007B68012283F83D207B68002283F83C208C
:104A7000FB7B18461037BD4680BD80B483B000AFC5
:104A8000786000BF0C37BD465DF8047B704780B48A
:104A900083B000AF786000BF0C37BD465DF8047B83
:104AA000704780B483B000AF786000BF0C37BD465C
:104AB0005DF8047B704780B483B000AF786000BFBE
:104AC0000C37BD465DF8047B7047000080B485B0AC
:104AD00000AF786039607B681B68FB607B683A4A8E
:104AE00093420FD07B68B3F1804F0BD07B68374A7D
:104AF000934207D07B68364A934203D07B68354A9D
:104B0000934208D1FB6823F07003FB603B685B684D
:104B1000FA681343FB607B682B4A93421BD07B6887
:104B2000B3F1804F17D07B68284A934213D07B683B
:104B3000274A93420FD07B68264A93420BD07B686A
:104B4000254A934207D07B68244A934203D07B686E
:104B5000234A934208D1FB6823F44073FB603B680F
:104B6000DB68FA681343FB60FB6823F080023B6854
:104B70005B691343FB607B68FA681A603B689A685C
:104B80007B68DA623B681A687B689A627B680E4AC7
:104B9000934203D13B681A697B681A637B680122E0
:104BA0005A617B681B6903F00103012B05D17B6807
:104BB0001B6923F001027B681A6100BF1437BD46F0
:104BC0005DF8047B704700BF000001400004004016
:104BD00000080040000C004000400140004401403B
:104BE0000048014080B487B000AF786039607B68CE
:104BF0001B6A7B617B681B6A23F001027B681A6277
:104C00007B685B683B617B689B69FB60FB6823F0AA
:104C10007003FB60FB6823F00303FB603B681B68C9
:104C2000FA681343FB607B6923F002037B613B68F6
:104C30009B687A6913437B617B681C4A93420CD161
:104C40007B6923F008037B613B68DB687A69134367
:104C50007B617B6923F004037B617B68134A934289
:104C600011D13B6923F480733B613B6923F40073EA
:104C70003B613B685B693A6913433B613B689B69F5
:104C80003A6913433B617B683A695A607B68FA680A
:104C90009A613B685A687B685A637B687A691A62D2
:104CA00000BF1C37BD465DF8047B70470000014023
:104CB00080B487B000AF786039607B681B6A7B6125
:104CC0007B681B6A23F010027B681A627B685B6852
:104CD0003B617B689B69FB60FB6823F4E043FB60FE
:104CE000FB6823F44073FB603B681B681B02FA6897
:104CF0001343FB607B6923F020037B613B689B6867
:104D00001B017A6913437B617B681E4A93420DD174
:104D10007B6923F080037B613B68DB681B017A6958
:104D200013437B617B6923F040037B617B68154AF9
:104D3000934213D13B6923F480633B613B6923F4C5
:104D400000633B613B685B699B003A6913433B61CD
:104D50003B689B699B003A6913433B617B683A69F6
:104D60005A607B68FA689A613B685A687B689A6304
:104D70007B687A691A6200BF1C37BD465DF8047B08
:104D8000704700BF0000014080B487B000AF78607A
:104D900039607B681B6A7B617B681B6A23F48072C5
:104DA0007B681A627B685B683B617B68DB69FB60E0
:104DB000FB6823F07003FB60FB6823F00303FB60D8
:104DC0003B681B68FA681343FB607B6923F400733C
:104DD0007B613B689B681B027A6913437B617B683C
:104DE0001D4A93420DD17B6923F400637B613B68CC
:104DF000DB681B027A6913437B617B6923F4806360
:104E00007B617B68144A934213D13B6923F480533E
:104E10003B613B6923F400533B613B685B691B01C9
:104E20003A6913433B613B689B691B013A69134331
:104E30003B617B683A695A607B68FA68DA613B6873
:104E40005A687B68DA637B687A691A6200BF1C372C
:104E5000BD465DF8047B70470000014080B487B018
:104E600000AF786039607B681B6A3B617B681B6AB6
:104E700023F480527B681A627B685B687B617B6885
:104E8000DB69FB60FB6823F4E043FB60FB6823F411
:104E90004073FB603B681B681B02FA681343FB60AE
:104EA0003B6923F400533B613B689B681B033A69F1
:104EB00013433B617B68104A934209D17B6923F419
:104EC00080437B613B685B699B017A6913437B612B
:104ED0007B687A695A607B68FA68DA613B685A686D
:104EE0007B681A647B683A691A6200BF1C37BD464A
:104EF0005DF8047B704700BF0000014080B487B0BC
:104F000000AFF860B9607A60FB681B6A7B61FB6880
:104F10001B6A23F00102FB681A62FB689B693B6114
:104F20003B6923F0F0033B617B681B013A69134343
:104F30003B617B6923F00A037B617A69BB68134399
:104F40007B61FB683A699A61FB687A691A6200BF03
:104F50001C37BD465DF8047B704780B487B000AF56
:104F6000F860B9607A60FB681B6A7B61FB681B6A4A
:104F700023F01002FB681A62FB689B693B613B6986
:104F800023F470433B617B681B033A6913433B6125
:104F90007B6923F0A0037B61BB681B017A69134323
:104FA0007B61FB683A699A61FB687A691A6200BFA3
:104FB0001C37BD465DF8047B704780B485B000AFF8
:104FC000786039607B689B68FB60FB6823F0700346
:104FD000FB603A68FB68134343F00703FB607B68A0
:104FE000FA689A6000BF1437BD465DF8047B7047CD
:104FF00080B487B000AFF860B9607A603B60FB684E
:105000009B687B617B6923F47F437B613B681A0269
:105010007B681A43BB6813437A6913437B61FB685F
:105020007A699A6000BF1C37BD465DF8047B704703
:1050300080B487B000AFF860B9607A60BB6803F0F5
:105040001F03012202FA03F37B61FB681A6A7B6982
:10505000DB431A40FB681A62FB681A6ABB6803F0FC
:105060001F03796801FA03F31A43FB681A6200BF51
:105070001C37BD465DF8047B7047000080B485B0E6
:1050800000AF786039607B6893F83C30012B01D128
:10509000022350E07B68012283F83C207B680222D7
:1050A00083F83D207B681B685B68FB607B681B683E
:1050B0009B68BB60FB6823F07003FB603B681B6868
:1050C000FA681343FB607B681B68FA685A607B6868
:1050D0001B681C4A934218D07B681B68B3F1804F51
:1050E00013D07B681B68184A93420ED07B681B68FC
:1050F000164A934209D07B681B68154A934204D034
:105100007B681B68134A93420CD1BB6823F0800371
:10511000BB603B685B68BA681343BB607B681B6815
:10512000BA689A607B68012283F83D207B68002280
:1051300083F83C20002318461437BD465DF8047BF5
:10514000704700BF0000014000040040000800401C
:10515000000C00400040014080B485B000AF786092
:1051600039600023FB607B6893F83C30012B01D150
:1051700002233DE07B68012283F83C20FB6823F09A
:10518000FF023B68DB681343FB60FB6823F440725B
:105190003B689B681343FB60FB6823F480623B68B9
:1051A0005B681343FB60FB6823F400623B681B6889
:1051B0001343FB60FB6823F480523B681B69134375
:1051C000FB60FB6823F400523B685B691343FB60A0
:1051D000FB6823F480423B68DB691343FB607B6818
:1051E0001B68FA685A647B68002283F83C2000231D
:1051F00018461437BD465DF8047B704780B483B011
:1052000000AF786000BF0C37BD465DF8047B704787
:1052100080B483B000AF786000BF0C37BD465DF846
:10522000047B704780B582B000AF78607B68002B4C
:1052300001D1012342E07B6893F84130DBB2002BBF
:1052400006D17B68002283F840207868FCF77EFF57
:105250007B68242283F841207B681B68DA687B68BE
:105260001B6822F40052DA60786800F02BF87B6843
:105270001B681A697B681B6822F490421A617B687C
:105280001B685A697B681B6822F02A025A617B6896
:105290001B68DA687B681B6842F40052DA607B683E
:1052A00000225A647B68202283F841207B682022F8
:1052B00083F842207B6800225A630023184608378F
:1052C000BD4680BD2DE9B04FC0B000AFC7F8F400B7
:1052D000D7F8F4301B681B6923F44050D7F8F4303A
:1052E000D968D7F8F4301A6840EA01031361D7F897
:1052F000F4309A68D7F8F4301B691A43D7F8F430C1
:105300005B691A43D7F8F430DB691343C7F8F83008
:10531000D7F8F4301B68DB6823F4164121F00C0148
:10532000D7F8F4301A68D7F8F8300B43D360D7F8C1
:10533000F4301B685B6923F44070D7F8F430996946
:10534000D7F8F4301A6840EA01035361D7F8F43013
:105350001A688F4B9A4205D0D7F8F4301A688D4BF3
:105360009A4204D1FEF71CFFC7F8FC0003E0FEF7E9
:1053700003FFC7F8FC00D7F8F430DB69B3F5004F42
:1053800040F00C81D7F8FC300022C7F8E830C7F8AD
:10539000EC20D7E93A4522462B469118B9655B4186
:1053A000FB65D7E91623214612EB0108294643EB9A
:1053B00001094FF000024FF000034FEAC90343EA2E
:1053C00058734FEAC80290469946234618EB0303E8
:1053D000C7F8E0302B4649EB0303C7F8E430D7F8B1
:1053E000F4305B680022C7F8D830C7F8DC20D7E972
:1053F00036120B46DB183B65134642EB03037B6515
:10540000D7E91423D7E93801FBF7D6FB02460B4650
:10541000614BA3FB02235B091C01D7F8FC3000227F
:10542000C7F8D030C7F8D420D7E9348942464B4674
:105430009118B9645B41FB64D7E91223414612EB32
:10544000010A494643EB010B4FF000024FF0000305
:105450004FEACB0343EA5A734FEACA0292469B468D
:1054600043461AEB0303C7F8C8304B464BEB030324
:10547000C7F8CC30D7F8F4305B680022C7F8C030EA
:10548000C7F8C420D7E930120B46DB183B6413463B
:1054900042EB03037B64D7E91023D7E93201FBF722
:1054A0008BFB02460B4611463B4BA3FB01235B09DA
:1054B000642202FB03F3CB1ADB0003F13202364B0A
:1054C000A3FB02235B095B0003F4F8731C44D7F8C9
:1054D000FC300022C7F8B830C7F8BC20D7E92E89C5
:1054E00042464B469118B9635B41FB63D7E90E23F3
:1054F00041465118396349464B417B634FF00002E6
:105500004FF00003D7E90CAB5946CB00514643EAB4
:1055100051735146CA0010461946034642469B182D
:10552000C7F8B0304B460A4642EB0303C7F8B43025
:10553000D7F8F4305B680022C7F8A830C7F8AC2071
:10554000D7E92A120B46DB18BB62134642EB030372
:10555000FB62D7E90A23D7E92C01FBF72DFB0246B2
:105560000B460D4BA3FB02135B09642101FB03F304
:10557000D31ADB003233084AA2FB03235B0903F092
:105580000702D7F8F4301B6822449A6006E100BF96
:1055900000100140001401401F85EB51D7F8FC308A
:1055A0000022C7F8A030C7F8A420D7E928894246CE
:1055B0004B46911839625B417B62D7E9082341462B
:1055C0005418494643EB01054FF000024FF0000329
:1055D000EB0043EA5473E20014461D464346E318C9
:1055E000C7F898304B4645EB0303C7F89C30D7F813
:1055F000F4305B680022C7F89030C7F894204FF071
:1056000000024FF00003D7E9244529468B002146CC
:1056100043EA917321468A00D7E92601FBF7CCFAC9
:1056200002460B46604BA3FB02235B091C01D7F823
:10563000FC300022C7F88830C7F88C20D7E92289CF
:1056400042464B469118B9615B41FB61D7E906239D
:1056500041465118396149464B417B614FF0000288
:105660004FF00003D7E904AB5946CB00514643EA5B
:1056700051735146CA0010461946034642469B18CC
:10568000C7F880304B460A4642EB0303C7F8843024
:10569000D7F8F4305B680022BB67FA674FF000026E
:1056A0004FF00003D7E91E8949468B00414643EA83
:1056B000917341468A00D7E92001FBF77DFA024643
:1056C0000B461146384BA3FB01235B09642202FB06
:1056D00003F3CB1A1B013233334AA2FB03235B09CA
:1056E00003F0F0031C44D7F8FC3000223B677A67D4
:1056F000D7E91C8942464B469118B9605B41FB6073
:10570000D7E9022341465118396049464B417B6035
:105710004FF000024FF00003D7E900AB5946CB0031
:10572000514643EA51735146CA0010461946034692
:1057300042469B18BB664B460A4642EB0303FB6698
:10574000D7F8F4305B6800223B667A664FF00002BF
:105750004FF00003D7E9188949468B00414643EAD8
:10576000917341468A00D7E91A01FBF725FA0246F0
:105770000B460D4BA3FB02135B09642101FB03F3F2
:10578000D31A1B013233084AA2FB03235B0903F03F
:105790000F02D7F8F4301B6822449A6000BF07F567
:1057A0008077BD46BDE8B08F1F85EB512DE9FF47DF
:1057B00057EC106B002F0C4619463B46BBBF07F158
:1057C00000431F4600232D230B700D9BDDF830A0F6
:1057D000914623F02008BCBF32461646B8F1460F6A
:1057E00005D0B8F1450F00D10134022100E00321BA
:1057F00003AB019302AB009347EC106B5346224678
:1058000000F05AFEB8F1470F054619D119F0010F03
:105810000ED000EB04090022002330463946FBF786
:105820005BF908B1CDF80C903022039B4B451ED399
:10583000039B0E9A5B1B2846136004B0BDE8F087FB
:10584000B8F1460F00EB0409E5D10378302B0AD1FB
:105850000022002330463946FBF73EF918B9C4F15F
:105860000104CAF80040DAF800309944D3E7591C23
:1058700003911A70D9E7F7B50029BABF49422D2321
:105880002B2309290270437029DD0DF107031D4602
:105890000A271A46B1FBF7F607FB1614303402F854
:1058A000014C0C46632C03F1FF333146F1DC3031FF
:1058B000941E03F8011C411C2346AB420AD30DF190
:1058C00009039B1AAC4288BF002302330344181A11
:1058D00003B0F0BD13F8016B01F8016FEDE7302361
:1058E00030318370C170031DF1E700002DE9F04FE6
:1058F0008DB00C46DDF8588016461F46054600F070
:10590000DBFC036804931846FAF7BAFC00230A93F9
:10591000D8F800300590073323F0070303F108029D
:1059200094F818A0D4F800B0C8F80020D3E9008992
:1059300029F000430793CDF81880C4E91289DDE906
:1059400006019C4B4FF0FF32FBF7F8F870BBDDE926
:105950000601984B4FF0FF32FBF7D2F830BB002224
:10596000002340464946FBF7C1F810B12D2384F8C7
:105970004330914A914BBAF1470F8CBF90469846FD
:10598000032323612BF0040323604FF000090097E9
:1059900033460BAA2146284600F0D2F9013040F0E8
:1059A0008D804FF0FF300DB0BDE8F08F42464B4682
:1059B00040464946FBF7C2F840B14B46002BBCBFFE
:1059C0002D2384F843307E4A7E4BD4E763680AF087
:1059D000DF0206925A1C3BD1062363604BF48062BF
:1059E0000023226003930AABCDE901A309AB009326
:1059F000616849EC108B0DF123032846FFF7D6FEB2
:105A0000069B0999472B804629D1C81C02DB636895
:105A1000994241DDAAF1020A5FFA8AFA0139524637
:105A200004F150000991FFF726FF0A9A1318012A82
:105A30008146236102DC2268D20701D5013323614C
:105A40009DF82330002BA2D02D2384F843309EE70D
:105A5000069A472AC2D1002BC0D10123BDE7BAF173
:105A6000650FDBD9BAF1660F18D1002963680BDD29
:105A7000216113B92268D00702D501330B44236199
:105A8000A1654FF00009DBE713B92268D20701D501
:105A90000233F4E70123F2E74FF0670A0A9B9942C9
:105AA00005DB23682161D807EAD54B1CE7E700290D
:105AB000D4BFC1F1020201221344E0E723685A0572
:105AC00007D42369424631462846B84701302BD1D6
:105AD00067E7BAF1650F40F2DD80D4E912010022D8
